:100000000C942A000C940D090C9440090C9473096B
:100010000C9447000C9447000C9447000C94470044
:100020000C9447000C9447000C9447000C940D0866
:100030000C9447000C9447000C9447000C94470024
:100040000C943A0D0C9447000C9447000C94470014
:100050000C94470011241FBECFE5D8E0DEBFCDBF12
:1000600011E0A0E6B0E0ECEAFAE502C005900D92DE
:10007000AC3DB107D9F712E0ACEDB1E001C01D9283
:10008000A130B107E1F70E940E220C94542D0C947C
:100090000000EF92FF920F931F937B018C0120E0F1
:1000A00030E040E05FE40E94250488238CF0C80122
:1000B000B70120E030E040E05FE40E94C1010E940F
:1000C000E3049B01AC01205030404040504806C042
:1000D000C801B7010E94E3049B01AC01B901CA0148
:1000E0001F910F91FF90EF900895A0E0B0E0EBE733
:1000F000F0E00C947028DC012B01FA019C91923005
:1001000008F439C1EB018881823008F433C194309E
:1001100069F4843009F02FC111969C91119789815F
:10012000981709F428C1AEE8B0E025C1843009F47D
:1001300021C18230A9F4923009F01DC19A01AD01AC
:1001400088E0EA010990AE01E90109929E0181501F
:10015000C1F7E201898111969C918923818308C1AD
:10016000923009F407C112962D903C901397EB0141
:100170008A819B811496AD90BD90CD90DC901797AD
:10018000EC80FD800E811F819101281B390BB90184
:1001900037FF04C066277727621B730B6032710537
:1001A0000CF061C0121613066CF537014801062EDB
:1001B00004C096948794779467940A94D2F721E0C8
:1001C00030E040E050E004C0220F331F441F551FB1
:1001D0006A95D2F721503040404050402E213F21B7
:1001E00040235123211531054105510521F021E01E
:1001F00030E040E050E079018A01E628F72808293C
:1002000019293CC0232BD1F1260E371E350146019A
:10021000062E04C096948794779467940A94D2F734
:1002200021E030E040E050E004C0220F331F441FC3
:10023000551F6A95D2F721503040404050402A2146
:100240003B214C215D21211531054105510521F04E
:1002500021E030E040E050E059016A01A628B728CB
:10026000C828D9280BC0821593052CF01C01AA249C
:10027000BB24650103C0EE24FF24870111969C91E5
:10028000D20111968C91981709F445C0992339F041
:10029000A80197012A193B094C095D0906C0A6016E
:1002A00095012E193F09400B510B57FD08C01182D3
:1002B0003382228224833583468357831DC081E0A5
:1002C00081833382228288279927DC01821B930B4A
:1002D000A40BB50B84839583A683B7830DC0220F2F
:1002E000331F441F551F24833583468357838281E0
:1002F000938101979383828324813581468157813D
:10030000DA01C9010197A109B1098F5F9F4FAF4F72
:10031000BF4328F30BC0918333822282EA0CFB1C7B
:100320000C1D1D1DE482F5820683178383E0808304
:10033000248135814681578157FF1AC0C901AA27F8
:1003400097FDA095BA2F81709070A070B0705695EF
:10035000479537952795822B932BA42BB52B848318
:100360009583A683B7838281938101969383828349
:10037000DF0101C0D201CD01CDB7DEB7E2E10C94BF
:100380008C28A0E2B0E0E7ECF1E00C947C286983D3
:100390007A838B839C832D833E834F835887E9E048
:1003A000EE2EF12CEC0EFD1ECE010196B7010E943F
:1003B000D4068E010F5E1F4FCE010596B8010E9434
:1003C000D4068A8991E089278A8BC701B801AE01DA
:1003D000475E5F4F0E9475000E94FF05A096E6E011
:1003E0000C949828A0E2B0E0E8EFF1E00C947C28AF
:1003F00069837A838B839C832D833E834F835887C5
:10040000F9E0EF2EF12CEC0EFD1ECE010196B701A6
:100410000E94D4068E010F5E1F4FCE010596B801D3
:100420000E94D406C701B801AE01475E5F4F0E942B
:1004300075000E94FF05A096E6E00C949828A0E2C3
:10044000B0E0E5E2F2E00C94702869837A838B8354
:100450009C832D833E834F835887CE010196BE0136
:10046000675F7F4F0E94D406CE010596BE016F5E86
:100470007F4F0E94D4069985923088F08989823016
:10048000C8F0943019F4823051F404C0843029F457
:10049000923081F48EE890E0C6C0923049F420E0BA
:1004A0009A858A89981321E02A87CE010996BBC0D4
:1004B000823049F420E09A858A89981321E02A8BBA
:1004C000CE014196B0C02D843E844F8458886D88FB
:1004D0007E888F88988CEE24FF248701AA24BB2471
:1004E000650140E050E060E070E0E0E0F0E0C10174
:1004F00081709070892BE9F0E60CF71C081D191D1E
:100500009A01AB012A0D3B1D4C1D5D1D80E090E062
:10051000A0E0B0E0E614F7040805190520F481E036
:1005200090E0A0E0B0E0BA01A901480F591F6A1F8E
:100530007B1FAA0CBB1CCC1CDD1C97FE08C081E0F5
:1005400090E0A0E0B0E0A82AB92ACA2ADB2A3196B6
:10055000E032F10549F0660C771C881C991C569412
:10056000479437942794C3CFFA85EA892B893C892D
:100570008B859C85280F391F2E5F3F4F17C0CA01FE
:1005800081709070892B61F016950795F794E79428
:1005900080E090E0A0E0B0E8E82AF92A0A2B1B2BC3
:1005A00076956795579547952F5F3F4F77FDE7CF36
:1005B0000CC0440F551F661F771F17FD4160EE0CDE
:1005C000FF1C001F111F21503040403090E05907A0
:1005D00090E0690790E4790760F32B8F3C8FDB0193
:1005E000CA018F779070A070B07080349105A1051A
:1005F000B10561F447FD0AC0E114F10401051105DC
:1006000029F0405C5F4F6F4F7F4F40781A8EFE1786
:1006100011F081E08A8F4D8F5E8F6F8F78A383E01A
:10062000898FCE0149960E94FF05A096E2E10C94C5
:100630008C28A8E1B0E0EFE1F3E00C94782869831E
:100640007A838B839C832D833E834F835887B9E0C5
:10065000EB2EF12CEC0EFD1ECE010196B7010E948F
:10066000D4068E010F5E1F4FCE010596B8010E9481
:10067000D4062985223008F47EC03989323010F43E
:10068000B8017CC08A859A8989278A87243011F02D
:10069000223031F4231709F06EC06EE870E06EC0AE
:1006A000343039F41D861E861F86188A1C861B86E8
:1006B00004C0323021F484E08987B7015FC02B8504
:1006C0003C858B899C89281B390B3C872B87ED84C3
:1006D000FE840F851889AD88BE88CF88D88CEA142F
:1006E000FB040C051D0540F4EE0CFF1C001F111F40
:1006F000215030403C872B8720E030E040E050E044
:1007000080E090E0A0E0B0E460E070E0EA14FB0478
:100710000C051D0540F0282B392B4A2B5B2BEA18C2
:10072000FB080C091D09B695A79597958795EE0CC2
:10073000FF1C001F111F6F5F7F4F6F31710531F775
:10074000DA01C9018F779070A070B0708034910584
:10075000A105B10561F427FD0AC0E114F10401050A
:10076000110529F0205C3F4F4F4F5F4F20782D87B8
:100770003E874F87588BBE01675F7F4FCB010E943A
:10078000FF056896EAE00C949428A8E1B0E0EBEC51
:10079000F3E00C947C2869837A838B839C832D837C
:1007A0003E834F83588789E0E82EF12CEC0EFD1E26
:1007B000CE010196B7010E94D4068E010F5E1F4F35
:1007C000CE010596B8010E94D4068985823040F09A
:1007D0008989823028F0C701B8010E944C0701C006
:1007E00081E06896E6E00C949828A8E1B0E0EBEF91
:1007F000F3E00C947C2869837A838B839C832D831C
:100800003E834F83588789E0E82EF12CEC0EFD1EC5
:10081000CE010196B7010E94D4068E010F5E1F4FD4
:10082000CE010596B8010E94D4068985823040F039
:100830008989823028F0C701B8010E944C0701C0A5
:100840008FEF6896E6E00C949828A8E1B0E0EBE220
:10085000F4E00C947C2869837A838B839C832D83BA
:100860003E834F83588789E0E82EF12CEC0EFD1E65
:10087000CE010196B7010E94D4068E010F5E1F4F74
:10088000CE010596B8010E94D4068985823040F0D9
:100890008989823028F0C701B8010E944C0701C045
:1008A0008FEF6896E6E00C949828A8E1B0E0EBE5BD
:1008B000F4E00C947C2869837A838B839C832D835A
:1008C0003E834F83588789E0E82EF12CEC0EFD1E05
:1008D000CE010196B7010E94D4068E010F5E1F4F14
:1008E000CE010596B8010E94D4068985823040F079
:1008F0008989823028F0C701B8010E944C0701C0E5
:1009000081E06896E6E00C949828A8E0B0E0EBE877
:10091000F4E00C9479289B01AC0183E08983DA012F
:10092000C9018827B7FD83959927AA27BB27B82E29
:10093000211531054105510519F482E089833AC03A
:100940008823A9F0203080E0380780E0480780E85D
:10095000580729F460E070E080E09FEC30C0EE249E
:10096000FF248701E21AF30A040B150B02C0790178
:100970008A018EE1C82ED12CDC82CB82ED82FE82F0
:100980000F831887C801B7010E94B0050197181698
:10099000190684F4082E04C0EE0CFF1C001F111F62
:1009A0000A94D2F7ED82FE820F831887C81AD90AFB
:1009B000DC82CB82BA82CE0101960E94FF05289686
:1009C000E9E00C949528ACE0B0E0E9EEF4E00C949A
:1009D000802869837A838B839C83CE010196BE0134
:1009E0006B5F7F4F0E94D4068D81823061F182302F
:1009F00050F1843021F48E81882351F12EC02F8153
:100A0000388537FD20C06E812F3131051CF06623FB
:100A1000F9F023C08EE190E0821B930B29853A8583
:100A20004B855C8504C056954795379527958A95E3
:100A3000D2F76623B1F050954095309521953F4F00
:100A40004F4F5F4F0EC020E030E040E050E009C063
:100A50002FEF3FEF4FEF5FE704C020E030E040E0D2
:100A600050E8B901CA012C96E2E00C949C28A8E059
:100A7000B0E0EDE3F5E00C9478287B018C01611582
:100A800071058105910519F482E0898360C083E0D6
:100A900089838EE1C82ED12CDC82CB82ED82FE824E
:100AA0000F831887C801B7010E94B005FC01319778
:100AB000F7FF3BC0222733272E1B3F0B570168014E
:100AC000022E04C0D694C794B794A7940A94D2F780
:100AD00040E050E060E070E081E090E0A0E0B0E055
:100AE00004C0880F991FAA1FBB1F2A95D2F7019730
:100AF000A109B1098E219F21A023B1230097A1054F
:100B0000B10521F041E050E060E070E04A295B2946
:100B10006C297D294D835E836F8378878EE190E019
:100B20008E1B9F0B9C838B8312C0309781F00E2EFF
:100B300004C0EE0CFF1C001F111F0A94D2F7ED82B7
:100B4000FE820F831887CE1ADF0ADC82CB821A82DC
:100B5000CE0101960E94FF052896EAE00C949428A5
:100B6000EF92FF920F931F937B018C0180E0E816B8
:100B700080E0F80681E0080780E0180788F48FEF2E
:100B8000E816F1040105110531F028F088E090E045
:100B9000A0E0B0E017C080E090E0A0E0B0E012C0BC
:100BA00080E0E81680E0F80680E0080781E018079A
:100BB00028F088E190E0A0E0B0E004C080E190E09F
:100BC000A0E0B0E020E230E040E050E0281B390B2C
:100BD0004A0B5B0B04C016950795F794E7948A952A
:100BE000D2F7F701EA56FF4F8081281B31094109EE
:100BF0005109C9011F910F91FF90EF900895DF9265
:100C0000EF92FF920F931F93FC01E480F580068121
:100C10001781D1808081823048F480E090E0A0E1AB
:100C2000B0E0E82AF92A0A2B1B2BA5C0843009F46E
:100C30009FC0823021F4EE24FF24870105C0E11417
:100C4000F1040105110519F4E0E0F0E096C06281BD
:100C500073819FEF623879070CF05BC022E83FEFA9
:100C6000261B370B2A3131052CF020E030E040E024
:100C700050E02AC0B801A701022E04C076956795FE
:100C8000579547950A94D2F781E090E0A0E0B0E054
:100C900004C0880F991FAA1FBB1F2A95D2F701977E
:100CA000A109B1098E219F21A023B1230097A1059D
:100CB000B10521F081E090E0A0E0B0E09A01AB0145
:100CC000282B392B4A2B5B2BDA01C9018F779070C7
:100CD000A070B07080349105A105B10539F427FFEB
:100CE00009C0205C3F4F4F4F5F4F04C0215C3F4F16
:100CF0004F4F5F4FE0E0F0E02030A0E03A07A0E087
:100D00004A07A0E45A0710F0E1E0F0E079018A0117
:100D100027C06038710564F5FB01E158FF4FD80129
:100D2000C7018F779070A070B07080349105A105D5
:100D3000B10539F4E7FE0DC080E490E0A0E0B0E03A
:100D400004C08FE390E0A0E0B0E0E80EF91E0A1FB7
:100D50001B1F17FF05C016950795F794E79431966A
:100D600087E016950795F794E7948A95D1F705C023
:100D7000EE24FF248701EFEFF0E06E2F67956627E2
:100D80006795902F9F77D794DD24D7948E2F8695E3
:100D9000492F462B582F5D29B701CA011F910F918A
:100DA000FF90EF90DF900895FC01DB0140815181BD
:100DB0002281622F6F7770E0221F2227221F9381EA
:100DC000892F880F822B282F30E0991F9927991F90
:100DD00011969C93119721153105A9F541155105DF
:100DE0006105710511F482E037C082E89FEF139628
:100DF0009C938E9312979A01AB0167E0220F331FE9
:100E0000441F551F6A95D1F783E08C930DC0220FC4
:100E1000331F441F551F12968D919C911397019774
:100E200013969C938E931297203080E0380780E0D1
:100E3000480780E4580758F314962D933D934D933B
:100E40005C93179708952F3F310579F441155105AB
:100E50006105710519F484E08C93089564FF03C063
:100E600081E08C9312C01C9210C02F573040139613
:100E70003C932E93129783E08C9387E0440F551F89
:100E8000661F771F8A95D1F7706414964D935D9312
:100E90006D937C93179708951F93DC01FB019C9140
:100EA000923008F447C08081823008F443C0943007
:100EB00051F411961C91843099F58181682F70E06E
:100EC000611B71093FC0843021F0923031F48230CF
:100ED000B9F18181882389F12DC011961C91119758
:100EE0008230F1F081811817D9F412962D913C913E
:100EF0001397828193818217930794F028173907FB
:100F0000BCF014968D919D910D90BC91A02D2481E3
:100F1000358146815781281739074A075B0718F43E
:100F2000112341F00AC082179307A407B50740F4C4
:100F3000112319F061E070E005C06FEF7FEF02C090
:100F400060E070E0CB011F910895DF93CF9300D054
:100F50000F92CDB7DEB79A83898389819A810097F2
:100F600009F442C0E981FA8180818823D1F5E981C1
:100F7000FA8181818823C1F5E981FA818481958193
:100F80009093DD018093DC01A3E5B0E0E3E5F0E0C0
:100F900080818F7B8C93A3E5B0E0E3E5F0E0808176
:100FA000877F8C93A3E5B0E0E3E5F0E09081E981F1
:100FB000FA818281892B8C93A2E5B0E0E981FA81E4
:100FC00083818C93A9E5B0E0E9E5F0E08081816060
:100FD0008C93AFE5B0E0EFE5F0E0808180688C9322
:100FE00003C0E981FA8180810F900F900F90CF911B
:100FF000DF910895DF93CF9300D0CDB7DEB789831B
:101000006A838981882321F4E2E5F0E08A81808384
:101010000F900F90CF91DF9108951F920F920FB60E
:101020000F9211242F933F934F935F936F937F936E
:101030008F939F93AF93BF93EF93FF93DF93CF93E0
:10104000CDB7DEB78091DC019091DD01009729F0EA
:10105000E091DC01F091DD010995CF91DF91FF91E5
:10106000EF91BF91AF919F918F917F916F915F9120
:101070004F913F912F910F900FBE0F901F90189599
:10108000DF93CF9300D0CDB7DEB79A838983898170
:101090009A81009709F4BCC0E981FA818081877048
:1010A0008430B1F4E981FA8180818873803281F4DF
:1010B000E981FA818081982F929596959695937003
:1010C00081818170880F880F892B843009F4A0C03A
:1010D000AFE5B0E0EFE5F0E0808180688C93E981D6
:1010E000FA81808187708430F9F083E062E041E02A
:1010F0000E94190AA5E5B0E0E5E5F0E09081E981FC
:10110000FA8180818770892B8C93E981FA818281B1
:1011100093819093DF018093DE01ABE5B0E0EBE5D6
:10112000F0E0808180648C93E981FA81808188730A
:10113000803249F183E063E040E00E94190AA5E5AE
:10114000B0E0E5E5F0E08081282FE981FA81808137
:101150008695869586958770882F90E0880F991FD1
:10116000880F991F822B8C93E981FA818481958164
:101170009093E1018093E001ABE5B0E0EBE5F0E0B6
:10118000808180688C93E981FA818081982F929583
:1011900096959695937081818170880F880F892B21
:1011A0008430B1F181E062E040E00E94190AA4E5D8
:1011B000B0E0E4E5F0E08081282FE981FA818081C8
:1011C000982F929596959695937081818170880F4E
:1011D000880F892B882F90E081709070002496955D
:1011E00087950794969587950794982F802D822B45
:1011F0008C93E981FA81868197819093E3018093B2
:10120000E201ABE5B0E0EBE5F0E0808180628C9339
:101210000F900F90CF91DF9108951F920F920FB60C
:101220000F9211242F933F934F935F936F937F936C
:101230008F939F93AF93BF93EF93FF93DF93CF93DE
:10124000CDB7DEB78091DE019091DF01009729F0E4
:10125000E091DE01F091DF010995CF91DF91FF91DF
:10126000EF91BF91AF919F918F917F916F915F911E
:101270004F913F912F910F900FBE0F901F90189597
:101280001F920F920FB60F9211242F933F934F93FB
:101290005F936F937F938F939F93AF93BF93EF93DE
:1012A000FF93DF93CF93CDB7DEB78091E0019091AC
:1012B000E101009729F0E091E001F091E101099549
:1012C000CF91DF91FF91EF91BF91AF919F918F915E
:1012D0007F916F915F914F913F912F910F900FBE32
:1012E0000F901F9018951F920F920FB60F92112416
:1012F0002F933F934F935F936F937F938F939F931E
:10130000AF93BF93EF93FF93DF93CF93CDB7DEB748
:101310008091E2019091E301009729F0E091E201D0
:10132000F091E3010995CF91DF91FF91EF91BF918A
:10133000AF919F918F917F916F915F914F913F916D
:101340002F910F900FBE0F901F901895DF93CF93A2
:1013500000D000D00F92CDB7DEB789836A834B836C
:101360008981843008F05DC08A81883008F059C0D6
:101370008B81282F30E03D832C838C819D810097C9
:1013800031F02C813D812130310539F14AC089810C
:10139000882F90E0880F991FFC01EC55FE4FA0812B
:1013A000B1818981882F90E0880F991FFC01EC554D
:1013B000FE4F0190F081E02D8081482F8A81282FF7
:1013C00030E081E090E0022E02C0880F991F0A945D
:1013D000E2F7809584238C9324C08981882F90E044
:1013E000880F991FFC01EC55FE4FA081B1818981C6
:1013F000882F90E0880F991FFC01EC55FE4F01905B
:10140000F081E02D8081482F8A81282F30E081E013
:1014100090E0022E02C0880F991F0A94E2F7842BF5
:101420008C930F900F900F900F900F90CF91DF91B2
:101430000895DF93CF9300D000D00F92CDB7DEB7E1
:1014400089836A834B838981843008F05DC08A81F7
:10145000883008F059C08B81282F30E03D832C83E1
:101460008C819D81009731F02C813D8121303105A7
:1014700039F14AC08981882F90E0880F991FFC01BB
:10148000E456FE4FA081B1818981882F90E0880FBA
:10149000991FFC01E456FE4F0190F081E02D808100
:1014A000482F8A81282F30E081E090E0022E02C090
:1014B000880F991F0A94E2F7809584238C9324C0A7
:1014C0008981882F90E0880F991FFC01E456FE4F18
:1014D000A081B1818981882F90E0880F991FFC013C
:1014E000E456FE4F0190F081E02D8081482F8A81E3
:1014F000282F30E081E090E0022E02C0880F991F73
:101500000A94E2F7842B8C930F900F900F900F901A
:101510000F90CF91DF910895DF93CF9300D0CDB797
:10152000DEB789836A838981843038F58A8188307F
:1015300020F58981882F90E0880F991FFC01E456DF
:10154000FE4FA081B1818981882F90E0880F991F7B
:10155000FC01E456FE4F0190F081E02D8081482F80
:101560008A81282F30E081E090E0022E02C0880FAF
:10157000991F0A94E2F784278C930F900F90CF91D4
:10158000DF910895DF93CF9300D000D0CDB7DEB7C1
:1015900089836A835C834B838981843018F58A81CF
:1015A000883000F58B819C810097E1F08981882F3C
:1015B00090E0880F991FFC01E455FE4F0190F081E7
:1015C000E02D8081282F30E08A81882F90E0A901CA
:1015D00002C0559547958A95E2F7CA018170EB8163
:1015E000FC8180830F900F900F900F90CF91DF912F
:1015F0000895DF93CF9300D0CDB7DEB789836A8398
:101600008981843068F48981882F90E0880F991F40
:10161000FC01EC55FE4F0190F081E02D8A81808322
:101620000F900F90CF91DF910895DF93CF9300D06B
:10163000CDB7DEB789836A838981843068F4898174
:10164000882F90E0880F991FFC01E456FE4F01900F
:10165000F081E02D8A8180830F900F90CF91DF91F0
:101660000895DF93CF930F92CDB7DEB78983898139
:101670008430C0F48981882F90E0880F991FFC0185
:10168000E456FE4FA081B1818981882F90E0880FB8
:10169000991FFC01E456FE4F0190F081E02D8081FE
:1016A00080958C930F90CF91DF910895DF93CF9326
:1016B00000D00F92CDB7DEB789837B836A8389819F
:1016C000843098F48A819B81009779F08981882FF2
:1016D00090E0880F991FFC01E455FE4F0190F081C6
:1016E000E02D8081EA81FB8180830F900F900F9025
:1016F000CF91DF910895DF93CF9300D00F92CDB7B4
:10170000DEB789836A834B838981843008F052C0B5
:101710008A81803108F04EC08B81863008F04AC043
:101720008981882F90E0880F991FFC01E456FE4FB5
:10173000A081B1818981882F90E0880F991FFC01D9
:10174000E456FE4F0190F081E02D8081482F8B817F
:10175000282F30E08FE090E002C0880F991F2A9573
:10176000E2F7809584238C938981882F90E0880FFD
:10177000991FFC01E456FE4FA081B1818981882F19
:1017800090E0880F991FFC01E456FE4F0190F08114
:10179000E02D8081482F8A81282F30E08B81882F8F
:1017A00090E0B90102C0660F771F8A95E2F7CB017E
:1017B000842B8C930F900F900F90CF91DF91089511
:1017C000DF93CF9300D000D00F92CDB7DEB78A83DE
:1017D0007C836B834D838A81882F90E0880F991FCB
:1017E000FC01E455FE4F0190F081E02D808189835A
:1017F0008A818430C0F48B819C810097A1F08D8117
:10180000863088F48981282F30E08D81882F90E000
:10181000A90102C0559547958A95E2F7CA018F70D4
:10182000EB81FC8180830F900F900F900F900F90B1
:10183000CF91DF910895DF93CF9300D00F92CDB772
:10184000DEB789836A834B8389818430D0F48981B0
:10185000882F90E0880F991FFC01EC55FE4F0190F6
:10186000F081E02D8A8180838981882F90E0880F24
:10187000991FFC01E456FE4F0190F081E02D8B8111
:1018800080830F900F900F90CF91DF910895DF9399
:10189000CF9300D000D0CDB7DEB789836A834B8366
:1018A0002C838981843068F48A81883050F489815E
:1018B0006A814C810E94190A89816A814B810E9448
:1018C000A6090F900F900F900F90CF91DF91089580
:1018D000DF93CF9300D0CDB7DEB79A838983A7E299
:1018E000B0E0E7E2F0E080818F7380648C93A6E241
:1018F000B0E0E6E2F0E0808187608C93A7E2B0E0A0
:10190000E7E2F0E080818F7D8C9389819A819093CA
:10191000E5018093E401AFE5B0E0EFE5F0E0808120
:1019200080688C93A6E2B0E0E6E2F0E08081886017
:101930008C93A6E2B0E0E6E2F0E0808180688C93D0
:101940000F900F90CF91DF910895DF93CF930F9277
:10195000CDB7DEB7898389818830F0F4E6E2F0E024
:1019600080818295869586958370882F90E081701E
:101970009070009789F4A7E2B0E0E7E2F0E08081A0
:10198000982F907E8981892B8C93A6E2B0E0E6E2C5
:10199000F0E0808180648C930F90CF91DF91089567
:1019A000DF93CF9300D0CDB7DEB79A838983898147
:1019B0009A81009791F0E4E2F0E08081282F30E0F6
:1019C000E5E2F0E08081882F90E0982F8827822B35
:1019D000932BE981FA81918380830F900F90CF91AF
:1019E000DF910895DF93CF9300D0CDB7DEB79A8310
:1019F0008983E7E2F0E080818F71E981FA81808359
:101A00000F900F90CF91DF910895DF93CF930F92B6
:101A1000CDB7DEB78983A7E2B0E0E7E2F0E08081EE
:101A2000982F907E8981892B8C930F90CF91DF9195
:101A30000895DF93CF93CDB7DEB71092E601A7E20A
:101A4000B0E0E7E2F0E08081282F207E8091E6017F
:101A5000882F90E0FC01EC54FE4F8081822B8C9308
:101A6000A6E2B0E0E6E2F0E0808180648C93CF9162
:101A7000DF9108951F920F920FB60F9211242F93AA
:101A80003F934F935F936F937F938F939F93AF9306
:101A9000BF93EF93FF93DF93CF93CDB7DEB78091E2
:101AA000E4019091E501009729F0E091E401F091C3
:101AB000E5010995CF91DF91FF91EF91BF91AF9132
:101AC0009F918F917F916F915F914F913F912F9156
:101AD0000F900FBE0F901F901895DF93CF9300D0FB
:101AE0000F92CDB7DEB79B838A8319828A819B814F
:101AF000009781F1EA81FB8180818F70882F90E0CF
:101B0000843091053CF5EA81FB81808182958F705C
:101B1000882F90E084309105ECF4EA81FB8181818B
:101B20008770882F90E088309105A4F4EA81FB81CA
:101B300081818074882331F0EA81FB818181807406
:101B4000882331F08A819B810E94F50D898303C02F
:101B5000198201C0198289810F900F900F90CF9147
:101B6000DF910895DF93CF9300D000D000D0CDB7A0
:101B7000DEB79B838A836C8319828A819B8100975D
:101B800049F18C818A3030F5EA81FB81818182952F
:101B90008695869583708170282F30E03E832D8353
:101BA0008D819E81009731F02D813E81213031055C
:101BB00041F00EC08A819B816C810E94390E89831D
:101BC0000AC08A819B816C810E94160E898303C0A2
:101BD000198201C01982898126960FB6F894DEBF5A
:101BE0000FBECDBFCF91DF910895DF93CF9300D08B
:101BF0000F92CDB7DEB79B838A8319820DC0EA812D
:101C0000FB81808182958F70698141E020E00E9494
:101C1000470C89818F5F89838981873080F381E0D8
:101C20000F900F900F90CF91DF910895DF93CF9396
:101C300000D00F92CDB7DEB79A8389836B83E98199
:101C4000FA81808182958F70282F8B81882F90E078
:101C5000FC01E954FE4F8081982F9095822F692FC7
:101C60000E94150B81E00F900F900F90CF91DF91A4
:101C70000895DF93CF9300D00F92CDB7DEB79A834C
:101C800089836B83E981FA81808182958F70282F07
:101C90008B81882F90E0FC01E954FE4F9081822FC8
:101CA000692F0E94150B81E00F900F900F90CF913C
:101CB000DF910895DF93CF9300D000D00F92CDB77E
:101CC000DEB79B838A8319828A819B81009709F4FE
:101CD00075C0EA81FB8180818770882F90E0843015
:101CE00091050CF06BC0EA81FB8180818695869519
:101CF00086958770882F90E0883091050CF05EC043
:101D0000EA81FB8180818295869586958370282F54
:101D100030E03D832C838C819D818130910531F0B1
:101D20002C813D8122303105B9F02CC0EA81FB8144
:101D300080818770282FEA81FB8180818695869536
:101D400086958770982F822F692F40E020E00E94AF
:101D5000470C81E0898317C0EA81FB81808187700D
:101D6000282FEA81FB8180818695869586958770EC
:101D7000982F822F692F40E021E00E94470C81E0DC
:101D8000898301C01982EA81FB8181818170882366
:101D9000B1F4EA81FB8180818770482FEA81FB8161
:101DA00080818695869586958770982F27EF31E0FC
:101DB000842F692FA9010E94C20A01C0198289815A
:101DC0000F900F900F900F900F90CF91DF9108958B
:101DD000DF93CF93CDB7DEB727970FB6F894DEBF6A
:101DE0000FBECDBF9C838B837E836D8319821A8245
:101DF0008B819C81009709F455C0EB81FC81808127
:101E00008770882F90E0843091050CF04BC0EB81F7
:101E1000FC8180818695869586958770882F90E0D5
:101E2000883091050CF03EC0EB81FC818081877089
:101E3000482FEB81FC8180818695869586958770F9
:101E4000982F9E012E5F3F4F842F692FA9010E947A
:101E5000C20AEB81FC8181818170882339F08A81FB
:101E6000ED81FE81808381E089831DC0EB81FC814F
:101E7000818181708823A1F49A818091F70198175C
:101E800019F483E08F8302C082E08F83ED81FE81AD
:101E90008F8180838A818093F70181E0898303C0E9
:101EA000198201C01982898127960FB6F894DEBF86
:101EB0000FBECDBFCF91DF910895DF93CF9300D0B8
:101EC000CDB7DEB79A83898389819A81009709F417
:101ED0004AC0E981FA8184818295869586958370CE
:101EE000282FE981FA8184818770982F822F692FAA
:101EF00041E00E94A609E981FA8185818295869553
:101F000086958370282FE981FA818481869586954C
:101F100086958770982F822F692F41E00E94A6092D
:101F2000E981FA8186818370282FE981FA81858190
:101F30008770982F822F692F41E00E94A609E981BE
:101F4000FA818681869586958370282FE981FA81AA
:101F500085818695869586958770982F822F692F23
:101F600041E00E94A6090F900F90CF91DF91089554
:101F70000F931F93DF93CF93CDB7DEB7C854D040F4
:101F80000FB6F894DEBF0FBECDBFFE01E95BFF4F79
:101F900091838083FE01E95BFF4F808191810097EF
:101FA00009F421C3FE01E95BFF4F0190F081E02DB0
:101FB00084818295869586958370282FFE01E95B42
:101FC000FF4F0190F081E02D84818770982F822F40
:101FD000692F41E00E94190AFE01ED5BFF4F80E08E
:101FE00090E0A0E2B1E480839183A283B3838E0169
:101FF000015C1F4FFE01ED5BFF4F608171818281AB
:10200000938120E030E04AEF54E40E941F02DC019B
:10201000CB01F80180839183A283B383FE01FF96F5
:10202000608171818281938120E030E040E85FE34C
:102030000E94550488232CF481E090E09EAF8DAF80
:1020400046C0FE01FF96608171818281938120E00C
:102050003FEF4FE757E40E94F503181664F5FE01C1
:10206000ED5BFF4F608171818281938120E030E0E0
:1020700040E251E40E941F02DC01CB01BC01CD0112
:102080000E944900DC01CB019EAF8DAF0FC088ECF0
:1020900090E09CAF8BAF8BAD9CAD0197F1F79CAFFF
:1020A0008BAF8DAD9EAD01979EAF8DAF8DAD9EADCB
:1020B000009769F716C0FE01FF96608171818281E9
:1020C00093810E944900DC01CB019EAF8DAF8DADA5
:1020D0009EAD9AAF89AF89AD9AAD0197F1F79AAFEE
:1020E00089AFFE01E95BFF4F0190F081E02D848113
:1020F0008295869586958370282FFE01E95BFF4FB8
:102100000190F081E02D84818770982F822F692FB4
:1021100040E00E94190AFE01E95BFF4F0190F08147
:10212000E02D85818295869586958370282FFE0106
:10213000E95BFF4F0190F081E02D848186958695C3
:1021400086958770982F822F692F41E00E94190A87
:1021500080E090E0A0E2B1E48DAB9EABAFABB8AF56
:102160006DA97EA98FA998AD20E030E04AEF54E434
:102170000E941F02DC01CB0189AB9AABABABBCABBD
:1021800069A97AA98BA99CA920E030E040E85FE327
:102190000E94550488232CF481E090E098AB8FA72F
:1021A0003FC069A97AA98BA99CA920E03FEF4FE71E
:1021B00057E40E94F50318164CF56DA97EA98FA966
:1021C00098AD20E030E040E251E40E941F02DC01C3
:1021D000CB01BC01CD010E944900DC01CB0198ABD1
:1021E0008FA70FC088EC90E09EA78DA78DA59EA518
:1021F0000197F1F79EA78DA78FA598A9019798AB96
:102200008FA78FA598A9009769F714C069A97AA923
:102210008BA99CA90E944900DC01CB0198AB8FA738
:102220008FA598A99CA78BA78BA59CA50197F1F7D3
:102230009CA78BA7FE01E95BFF4F0190F081E02D89
:1022400085818295869586958370282FFE01E95BAE
:10225000FF4F0190F081E02D8481869586958695CB
:102260008770982F822F692F40E00E94190AFE0183
:10227000E95BFF4F0190F081E02D86818370282F6C
:10228000FE01E95BFF4F0190F081E02D85818770B1
:10229000982F822F692F41E00E94190A80E090E078
:1022A000A0E2B1E48FA398A7A9A7BAA76FA178A5C8
:1022B00089A59AA520E030E04AEF54E40E941F026D
:1022C000DC01CB018BA39CA3ADA3BEA36BA17CA11E
:1022D0008DA19EA120E030E040E85FE30E9455041C
:1022E00088232CF481E090E09AA389A33FC06BA1DE
:1022F0007CA18DA19EA120E03FEF4FE757E40E9413
:10230000F50318164CF56FA178A589A59AA520E0CC
:1023100030E040E251E40E941F02DC01CB01BC012D
:10232000CD010E944900DC01CB019AA389A30FC013
:1023300088EC90E098A38F8F8F8D98A10197F1F78B
:1023400098A38F8F89A19AA101979AA389A389A1A4
:102350009AA1009769F714C06BA17CA18DA19EA1E1
:102360000E944900DC01CB019AA389A389A19AA10B
:102370009E8F8D8F8D8D9E8D0197F1F79E8F8D8F06
:10238000FE01E95BFF4F0190F081E02D86818370B3
:10239000282FFE01E95BFF4F0190F081E02D858140
:1023A0008770982F822F692F40E00E94190AFE0142
:1023B000E95BFF4F0190F081E02D8681869586953F
:1023C0008370282FFE01E95BFF4F0190F081E02D23
:1023D00085818695869586958770982F822F692F9F
:1023E00041E00E94190A80E090E0A0E2B1E4898F08
:1023F0009A8FAB8FBC8F698D7A8D8B8D9C8D20E0F1
:1024000030E04AEF54E40E941F02DC01CB018D8BC7
:102410009E8BAF8BB88F6D897E898F89988D20E0D8
:1024200030E040E85FE30E94550488232CF481E00B
:1024300090E09C8B8B8B3FC06D897E898F89988DB6
:1024400020E03FEF4FE757E40E94F50318164CF5E4
:10245000698D7A8D8B8D9C8D20E030E040E251E4D7
:102460000E941F02DC01CB01BC01CD010E9449008A
:10247000DC01CB019C8B8B8B0FC088EC90E09A8B9E
:10248000898B89899A890197F1F79A8B898B8B8936
:102490009C8901979C8B8B8B8B899C89009769F712
:1024A00014C06D897E898F89988D0E944900DC0156
:1024B000CB019C8B8B8B8B899C89988B8F878F858D
:1024C00098890197F1F7988B8F87FE01E95BFF4FA1
:1024D0000190F081E02D8681869586958370282F66
:1024E000FE01E95BFF4F0190F081E02D858186952B
:1024F000869586958770982F822F692F40E00E94DD
:10250000190A80E090E0A0E2B1E48B879C87AD8758
:10251000BE876B857C858D859E8520E030E04AEF07
:1025200054E40E941F02DC01CB018F839887A987A6
:10253000BA876F81788589859A8520E030E040E808
:102540005FE30E94550488232CF481E090E09E8391
:102550008D833FC06F81788589859A8520E03FEF24
:102560004FE757E40E94F50318164CF56B857C8500
:102570008D859E8520E030E040E251E40E941F02FC
:10258000DC01CB01BC01CD010E944900DC01CB0183
:102590009E838D830FC088EC90E09C838B838B811E
:1025A0009C810197F1F79C838B838D819E8101979C
:1025B0009E838D838D819E81009769F714C06F8102
:1025C000788589859A850E944900DC01CB019E832C
:1025D0008D838D819E819A83898389819A810197D8
:1025E000F1F79A838983C85BDF4F0FB6F894DEBF9B
:1025F0000FBECDBFCF91DF911F910F9108950F9323
:102600001F93DF93CF93CDB7DEB7C854D0400FB63A
:10261000F894DEBF0FBECDBFFE01E95BFF4F918393
:102620008083FE01E95BFF4F80819181009709F46F
:1026300021C3FE01E95BFF4F0190F081E02D86810F
:102640008370282FFE01E95BFF4F0190F081E02DA0
:1026500085818770982F822F692F41E00E94190A87
:10266000FE01ED5BFF4F80E090E0A0E2B1E48083EB
:102670009183A283B3838E01015C1F4FFE01ED5B4A
:10268000FF4F608171818281938120E030E04AEFC9
:1026900054E40E941F02DC01CB01F8018083918386
:1026A000A283B383FE01FF96608171818281938151
:1026B00020E030E040E85FE30E94550488232CF4DA
:1026C00081E090E09EAF8DAF46C0FE01FF96608135
:1026D00071818281938120E03FEF4FE757E40E94B0
:1026E000F503181664F5FE01ED5BFF4F6081718103
:1026F0008281938120E030E040E251E40E941F0299
:10270000DC01CB01BC01CD010E944900DC01CB0101
:102710009EAF8DAF0FC088EC90E09CAF8BAF8BADC0
:102720009CAD0197F1F79CAF8BAF8DAD9EAD01973E
:102730009EAF8DAF8DAD9EAD009769F716C0FE01BF
:10274000FF9660817181828193810E944900DC0142
:10275000CB019EAF8DAF8DAD9EAD9AAF89AF89ADE8
:102760009AAD0197F1F79AAF89AFFE01E95BFF4F90
:102770000190F081E02D86818370282FFE01E95BB6
:10278000FF4F0190F081E02D85818770982F822F77
:10279000692F40E00E94190AFE01E95BFF4F01909A
:1027A000F081E02D8681869586958370282FFE0125
:1027B000E95BFF4F0190F081E02D8581869586953C
:1027C00086958770982F822F692F41E00E94190A01
:1027D00080E090E0A0E2B1E48DAB9EABAFABB8AFD0
:1027E0006DA97EA98FA998AD20E030E04AEF54E4AE
:1027F0000E941F02DC01CB0189AB9AABABABBCAB37
:1028000069A97AA98BA99CA920E030E040E85FE3A0
:102810000E94550488232CF481E090E098AB8FA7A8
:102820003FC069A97AA98BA99CA920E03FEF4FE797
:1028300057E40E94F50318164CF56DA97EA98FA9DF
:1028400098AD20E030E040E251E40E941F02DC013C
:10285000CB01BC01CD010E944900DC01CB0198AB4A
:102860008FA70FC088EC90E09EA78DA78DA59EA591
:102870000197F1F79EA78DA78FA598A9019798AB0F
:102880008FA78FA598A9009769F714C069A97AA99D
:102890008BA99CA90E944900DC01CB0198AB8FA7B2
:1028A0008FA598A99CA78BA78BA59CA50197F1F74D
:1028B0009CA78BA7FE01E95BFF4F0190F081E02D03
:1028C0008681869586958370282FFE01E95BFF4FF0
:1028D0000190F081E02D858186958695869587709B
:1028E000982F822F692F40E00E94190AFE01E95BB0
:1028F000FF4F0190F081E02D858182958695869528
:102900008370282FFE01E95BFF4F0190F081E02DDD
:1029100084818695869586958770982F822F692F5A
:1029200041E00E94190A80E090E0A0E2B1E48FA3A8
:1029300098A7A9A7BAA76FA178A589A59AA520E00D
:1029400030E04AEF54E40E941F02DC01CB018BA36C
:102950009CA3ADA3BEA36BA17CA18DA19EA120E0F1
:1029600030E040E85FE30E94550488232CF481E0C6
:1029700090E09AA389A33FC06BA17CA18DA19EA1E9
:1029800020E03FEF4FE757E40E94F50318164CF59F
:102990006FA178A589A59AA520E030E040E251E436
:1029A0000E941F02DC01CB01BC01CD010E94490045
:1029B000DC01CB019AA389A30FC088EC90E098A317
:1029C0008F8F8F8D98A10197F1F798A38F8F89A191
:1029D0009AA101979AA389A389A19AA1009769F75F
:1029E00014C06BA17CA18DA19EA10E944900DC01B5
:1029F000CB019AA389A389A19AA19E8F8D8F8D8DDA
:102A00009E8D0197F1F79E8F8D8FFE01E95BFF4F41
:102A10000190F081E02D8581829586958695837061
:102A2000282FFE01E95BFF4F0190F081E02D8481AA
:102A30008695869586958770982F822F692F40E01E
:102A40000E94190AFE01E95BFF4F0190F081E02D21
:102A500084818295869586958370282FFE01E95B97
:102A6000FF4F0190F081E02D84818770982F822F95
:102A7000692F41E00E94190A80E090E0A0E2B1E4F1
:102A8000898F9A8FAB8FBC8F698D7A8D8B8D9C8D42
:102A900020E030E04AEF54E40E941F02DC01CB0149
:102AA0008D8B9E8BAF8BB88F6D897E898F89988D2A
:102AB00020E030E040E85FE30E94550488232CF4D6
:102AC00081E090E09C8B8B8B3FC06D897E898F89E4
:102AD000988D20E03FEF4FE757E40E94F50318166A
:102AE0004CF5698D7A8D8B8D9C8D20E030E040E235
:102AF00051E40E941F02DC01CB01BC01CD010E9408
:102B00004900DC01CB019C8B8B8B0FC088EC90E0E3
:102B10009A8B898B89899A890197F1F79A8B898B8E
:102B20008B899C8901979C8B8B8B8B899C890097C7
:102B300069F714C06D897E898F89988D0E9449003C
:102B4000DC01CB019C8B8B8B8B899C89988B8F872D
:102B50008F8598890197F1F7988B8F87FE01E95B44
:102B6000FF4F0190F081E02D8481829586958695B6
:102B70008370282FFE01E95BFF4F0190F081E02D6B
:102B800084818770982F822F692F40E00E94190A54
:102B900080E090E0A0E2B1E48B879C87AD87BE87A0
:102BA0006B857C858D859E8520E030E04AEF54E47E
:102BB0000E941F02DC01CB018F839887A987BA8707
:102BC0006F81788589859A8520E030E040E85FE371
:102BD0000E94550488232CF481E090E09E838D832D
:102BE0003FC06F81788589859A8520E03FEF4FE768
:102BF00057E40E94F50318164CF56B857C858D858E
:102C00009E8520E030E040E251E40E941F02DC019A
:102C1000CB01BC01CD010E944900DC01CB019E83A8
:102C20008D830FC088EC90E09C838B838B819C818B
:102C30000197F1F79C838B838D819E8101979E8301
:102C40008D838D819E81009769F714C06F8178858F
:102C500089859A850E944900DC01CB019E838D8382
:102C60008D819E819A83898389819A810197F1F769
:102C70009A838983C85BDF4F0FB6F894DEBF0FBE1F
:102C8000CDBFCF91DF911F910F910895DF93CF9327
:102C9000CDB7DEB72A970FB6F894DEBF0FBECDBF13
:102CA0009E838D834F83588769877A8719821A821A
:102CB0001B821C820FC08D819E810E94B80F89816A
:102CC0009A81AB81BC810196A11DB11D89839A8334
:102CD000AB83BC8329813A814B815C818F8198854C
:102CE000A985BA85281739074A075B0720F32A9672
:102CF0000FB6F894DEBF0FBECDBFCF91DF91089520
:102D0000DF93CF93CDB7DEB72A970FB6F894DEBF27
:102D10000FBECDBF9E838D834F83588769877A8787
:102D200019821A821B821C820FC08D819E810E9493
:102D3000FF1289819A81AB81BC810196A11DB11DD1
:102D400089839A83AB83BC8329813A814B815C81DF
:102D50008F819885A985BA85281739074A075B07A7
:102D600020F32A960FB6F894DEBF0FBECDBFCF91E9
:102D7000DF910895DF93CF9300D000D00F92CDB7AD
:102D8000DEB79B838A8319828A819B81009709F42D
:102D900055C0EA81FB8180818F70882F90E084305C
:102DA00091050CF04BC0EA81FB81808182958F7088
:102DB0008770882F90E0883091050CF03FC0EA8141
:102DC000FB818081881F8827881F282F30E03D8362
:102DD0002C838C819D810097D1F02C813D81213005
:102DE000310551F5EA81FB8180818F70282FEA81BE
:102DF000FB81808182958F708770982F822F692F39
:102E000041E020E00E94470C81E0898318C0EA81FC
:102E1000FB8180818F70282FEA81FB8180818295E0
:102E20008F708770982F822F692F41E021E00E94D8
:102E3000470C81E0898303C0198201C0198289810E
:102E40000F900F900F900F900F90CF91DF910895FA
:102E5000DF93CF9300D000D00F92CDB7DEB79B8326
:102E60008A8319828A819B81009709F452C0EA8182
:102E7000FB8180818F70882F90E0843091050CF069
:102E800048C0EA81FB81808182958F708770882F8E
:102E900090E088309105ECF5EA81FB818081881F04
:102EA0008827881F282F30E03D832C838C819D81CB
:102EB0000097C9F02C813D812130310541F5EA812F
:102EC000FB8180818F70282FEA81FB818081829530
:102ED0008F708770982F822F692F40E00E94190A07
:102EE00081E0898317C0EA81FB8180818F70282F60
:102EF000EA81FB81808182958F708770982F822F65
:102F0000692F41E00E94190A81E0898303C0198278
:102F100001C0198289810F900F900F900F900F9030
:102F2000CF91DF910895DF93CF9300D000D00F921F
:102F3000CDB7DEB79B838A8319828A819B810097F4
:102F400009F452C0EA81FB8180818F70882F90E064
:102F5000843091050CF048C0EA81FB818081829524
:102F60008F708770882F90E088309105ECF5EA81AA
:102F7000FB818081881F8827881F282F30E03D83B0
:102F80002C838C819D810097C9F02C813D8121305B
:102F9000310541F5EA81FB8180818F70282FEA811C
:102FA000FB81808182958F708770982F822F692F87
:102FB00041E00E94190A81E0898317C0EA81FB8100
:102FC00080818F70282FEA81FB81808182958F70AC
:102FD0008770982F822F692F40E00E94190A81E0A4
:102FE000898303C0198201C0198289810F900F90D3
:102FF0000F900F900F90CF91DF910895DF93CF93B3
:1030000000D00F92CDB7DEB79B838A8319828A8165
:103010009B81009739F1EA81FB8180818F70882F35
:1030200090E084309105F4F4EA81FB8180818295FF
:103030008F708770882F90E0883091059CF4EA812A
:10304000FB8180818F70282FEA81FB8180818295AE
:103050008F708770982F822F692F0E948C0A81E0D1
:10306000898301C0198289810F900F900F90CF91B1
:10307000DF910895DF93CF9300D0CDB7DEB79A8369
:10308000898380E060E040E00E94A60989819A81FE
:103090000E94680C0F900F90CF91DF910895DF93FD
:1030A000CF93CDB7DEB7A7E2B0E0E7E2F0E08081F2
:1030B000807E8C93A6E2B0E0E6E2F0E0808180645E
:1030C0008C93CF91DF910895DF93CF9300D000D000
:1030D000CDB7DEB79C838B831A821982CE0101960D
:1030E0000E94D00C89819A81CC01A0E0B0E0BC01A3
:1030F000CD010E943705DC01CB01BC01CD012FE6DB
:1031000032E143E050E40E941903DC01CB01BC0131
:10311000CD010E944900DC01CB01EB81FC81918350
:1031200080830F900F900F900F90CF91DF910895B3
:10313000DF93CF9300D0CDB7DEB79A83898380E049
:1031400060E040E00E94A60989819A810E94680C93
:103150000F900F90CF91DF910895DF93CF93CDB76C
:10316000DEB7A7E2B0E0E7E2F0E08081807E8C93FA
:10317000A6E2B0E0E6E2F0E0808180648C93CF913B
:10318000DF910895DF93CF93CDB7DEB729970FB6C0
:10319000F894DEBF0FBECDBF98878F831E821D823D
:1031A00080E090E0A0E0B0E089839A83AB83BC83A9
:1031B000CE0105960E94D00C8D819E81CC01A0E0AD
:1031C000B0E0BC01CD010E943705DC01CB01BC01A0
:1031D000CD0120E030E048E453E40E941903DC0113
:1031E000CB0189839A83AB83BC83198669817A81F9
:1031F0008B819C8123E333E343E550E40E94250463
:10320000882314F081E0898781E099858927882FB8
:1032100090E0EF81F885808329960FB6F894DEBFA1
:103220000FBECDBFCF91DF910895DF93CF9300D034
:10323000CDB7DEB79A83898389819A81009721F07F
:1032400089819A810E944E1A0F900F90CF91DF9141
:103250000895DF93CF9300D00F92CDB7DEB79A8356
:1032600089836B8389819A81009729F089819A816A
:103270006B810E94861C0F900F900F90CF91DF9171
:103280000895DF93CF9300D00F92CDB7DEB79A8326
:1032900089836B8389819A81009729F089819A813A
:1032A0006B810E94E21D0F900F900F90CF91DF91E4
:1032B0000895DF93CF9300D000D0CDB7DEB79A83C7
:1032C00089836B834C8389819A81009781F08B81FC
:1032D000813468F48C81803150F49B818C81890F1A
:1032E0008068282F89819A81622F0E9429190F9066
:1032F0000F900F900F90CF91DF910895DF93CF93B0
:1033000000D000D00F92CDB7DEB79A8389836B834C
:103310004C832D8389819A816C814D810E9459193A
:1033200089819A816B810E9441190F900F900F90B3
:103330000F900F90CF91DF910895DF93CF9300D03E
:1033400000D00F92CDB7DEB79B838A837D836C83D9
:103350008A819B81009711F18C819D810097F1F00A
:10336000198211C08981282F30E08C819D81FC0158
:10337000E20FF31F208189818F5F89838A819B817E
:10338000622F0E9441198981282F30E08C819D8114
:10339000FC01E20FF31F8081882321F70F900F902B
:1033A0000F900F900F90CF91DF910895DF93CF93FF
:1033B00000D000D000D0CDB7DEB79A8389837C835C
:1033C0006B834D832E8389819A816D814E810E940A
:1033D000591989819A812B813C81B9010E949D19DB
:1033E00026960FB6F894DEBF0FBECDBFCF91DF910A
:1033F0000895DF93CF9300D0CDB7DEB79A8389834A
:1034000089819A816CE10E9429190F900F90CF91C8
:10341000DF910895DF93CF9300D0CDB7DEB79A83C5
:10342000898389819A8168E10E9429190F900F9000
:10343000CF91DF910895DF93CF9300D0CDB7DEB762
:103440009A83898389819A8164E10E9429190F9066
:103450000F90CF91DF910895DF93CF9300D0CDB738
:10346000DEB79A83898389819A8160E10E94291954
:103470000F900F90CF91DF910895DF93CF9300D0FD
:10348000CDB7DEB79A83898389819A8161E00E94F2
:1034900029190F900F90CF91DF910895DF93CF936B
:1034A000CDB7DEB7EA970FB6F894DEBF0FBECDBF3B
:1034B0009AAF89AFE9ADFAAD808183706FEF0E945A
:1034C000F90AE9ADFAAD8081869586958370282F3B
:1034D000E9ADFAAD81818770982F822F692F41E085
:1034E0000E94A609E9ADFAAD808182958F70837044
:1034F000282FE9ADFAAD81818695869586958770EE
:10350000982F822F692F41E00E94A609E9ADFAADFC
:1035100080818295869586958370282FE9ADFAADD6
:103520008181982F9295969596959370828181705E
:10353000880F880F892B982F822F692F41E00E94D6
:10354000A60980E090E0A0EFB1E48DAB9EABAFABFD
:10355000B8AF6DA97EA98FA998AD20E030E04AEF01
:1035600054E40E941F02DC01CB0189AB9AABABABE8
:10357000BCAB69A97AA98BA99CA920E030E040E8FE
:103580005FE30E94550488232CF481E090E098AB1F
:103590008FA73FC069A97AA98BA99CA920E03FEF1A
:1035A0004FE757E40E94F50318164CF56DA97EA964
:1035B0008FA998AD20E030E040E251E40E941F0264
:1035C000DC01CB01BC01CD010E944900DC01CB0133
:1035D00098AB8FA70FC088EC90E09EA78DA78DA514
:1035E0009EA50197F1F79EA78DA78FA598A9019792
:1035F00098AB8FA78FA598A9009769F714C069A900
:103600007AA98BA99CA90E944900DC01CB0198AB47
:103610008FA78FA598A99CA78BA78BA59CA5019781
:10362000F1F79CA78BA789AD9AAD68E30E94291991
:1036300080E090E0A0E8BFE38FA398A7A9A7BAA76E
:103640006FA178A589A59AA520E030E04AEF54E45F
:103650000E941F02DC01CB018BA39CA3ADA3BEA3E0
:103660006BA17CA18DA19EA120E030E040E85FE34A
:103670000E94550488232CF481E090E09AA389A34A
:103680003FC06BA17CA18DA19EA120E03FEF4FE741
:1036900057E40E94F50318164CF56FA178A589A58B
:1036A0009AA520E030E040E251E40E941F02DC01D4
:1036B000CB01BC01CD010E944900DC01CB019AA3E2
:1036C00089A30FC088EC90E098A38F8F8F8D98A16D
:1036D0000197F1F798A38F8F89A19AA101979AA3D7
:1036E00089A389A19AA1009769F714C06BA17CA155
:1036F0008DA19EA10E944900DC01CB019AA389A360
:1037000089A19AA19E8F8D8F8D8D9E8D0197F1F746
:103710009E8F8D8F89AD9AAD6CE00E94291980E053
:1037200090E0A0E8BFE3898F9A8FAB8FBC8F698D43
:103730007A8D8B8D9C8D20E030E04AEF54E40E941E
:103740001F02DC01CB018D8B9E8BAF8BB88F6D89F7
:103750007E898F89988D20E030E040E85FE30E9409
:10376000550488232CF481E090E09C8B8B8B3FC028
:103770006D897E898F89988D20E03FEF4FE757E470
:103780000E94F50318164CF5698D7A8D8B8D9C8DF2
:1037900020E030E040E251E40E941F02DC01CB0156
:1037A000BC01CD010E944900DC01CB019C8B8B8BBD
:1037B0000FC088EC90E09A8B898B89899A89019750
:1037C000F1F79A8B898B8B899C8901979C8B8B8BCA
:1037D0008B899C89009769F714C06D897E898F89D0
:1037E000988D0E944900DC01CB019C8B8B8B8B89CF
:1037F0009C89988B8F878F8598890197F1F7988B93
:103800008F8789AD9AAD61E00E94291980E090E030
:10381000A0E8BFE38B879C87AD87BE876B857C85DF
:103820008D859E8520E030E04AEF54E40E941F021F
:10383000DC01CB018F839887A987BA876F81788550
:1038400089859A8520E030E040E85FE30E945504D6
:1038500088232CF481E090E09E838D833FC06F81AC
:10386000788589859A8520E03FEF4FE757E40E94ED
:10387000F50318164CF56B857C858D859E8520E0BB
:1038800030E040E251E40E941F02DC01CB01BC01A8
:10389000CD010E944900DC01CB019E838D830FC0C6
:1038A00088EC90E09C838B838B819C810197F1F75E
:1038B0009C838B838D819E8101979E838D838D81D7
:1038C0009E81009769F714C06F81788589859A85F4
:1038D0000E944900DC01CB019E838D838D819E81F6
:1038E0009A83898389819A810197F1F79A838983E1
:1038F00089AD9AAD66E00E942919EA960FB6F89450
:10390000DEBF0FBECDBFCF91DF910895DF93CF9380
:10391000CDB7DEB76F970FB6F894DEBF0FBECDBF41
:103920009E8F8D8F6F8FED8DFE8D80818695869514
:103930008370282FED8DFE8D81818770982F822FC7
:10394000692F40E00E94190AED8DFE8D80818295DD
:103950008F708370282FED8DFE8D818186958695E1
:1039600086958770982F822F692F40E00E94190A50
:10397000ED8DFE8D808183706F8D0E94150BED8D16
:10398000FE8D80818295869586958370282FED8D9A
:10399000FE8D8181982F9295969596959370828150
:1039A0008170880F880F892B982F822F692F41E013
:1039B0000E94190A80E090E0A0E8BFE3898F9A8F07
:1039C000AB8FBC8F698D7A8D8B8D9C8D20E030E024
:1039D0004AEF54E40E941F02DC01CB018D8B9E8BC9
:1039E000AF8BB88F6D897E898F89988D20E030E00C
:1039F00040E85FE30E94550488232CF481E090E0C6
:103A00009C8B8B8B3FC06D897E898F89988D20E040
:103A10003FEF4FE757E40E94F50318164CF5698D08
:103A20007A8D8B8D9C8D20E030E040E251E40E9445
:103A30001F02DC01CB01BC01CD010E944900DC0169
:103A4000CB019C8B8B8B0FC088EC90E09A8B898B81
:103A500089899A890197F1F79A8B898B8B899C893F
:103A600001979C8B8B8B8B899C89009769F714C07D
:103A70006D897E898F89988D0E944900DC01CB0178
:103A80009C8B8B8B8B899C89988B8F878F85988952
:103A90000197F1F7988B8F87ED8DFE8D8081829550
:103AA000869586958370282FED8DFE8D8181982FC8
:103AB000929596959695937082818170880F880F64
:103AC000892B982F822F692F40E00E94190A80E0ED
:103AD00090E0A0E2B1E48B879C87AD87BE876B85C1
:103AE0007C858D859E8520E030E04AEF54E40E947D
:103AF0001F02DC01CB018F839887A987BA876F816A
:103B0000788589859A8520E030E040E85FE30E946F
:103B1000550488232CF481E090E09E838D833FC080
:103B20006F81788589859A8520E03FEF4FE757E4DC
:103B30000E94F50318164CF56B857C858D859E8556
:103B400020E030E040E251E40E941F02DC01CB01A2
:103B5000BC01CD010E944900DC01CB019E838D8315
:103B60000FC088EC90E09C838B838B819C810197B4
:103B7000F1F79C838B838D819E8101979E838D833A
:103B80008D819E81009769F714C06F817885898542
:103B90009A850E944900DC01CB019E838D838D8133
:103BA0009E819A83898389819A810197F1F79A830B
:103BB00089836F960FB6F894DEBF0FBECDBFCF914D
:103BC000DF910895DF93CF93CDB7DEB761970FB63E
:103BD000F894DEBF0FBECDBF988B8F87698BEF85C2
:103BE000F8898081869586958370282FEF85F889DE
:103BF00081818770982F822F692F41E00E94190AD6
:103C0000EF85F889808182958F708370282FEF85EA
:103C1000F88981818695869586958770982F822F61
:103C2000692F40E00E94190AEF85F889808183702E
:103C300069890E94150BEF85F889808182958695A8
:103C400086958370282FEF85F8898181982F92952A
:103C500096959695937082818170880F880F892B35
:103C6000982F822F692F41E00E94190A80E090E08E
:103C7000A0E8BFE38B879C87AD87BE876B857C857B
:103C80008D859E8520E030E04AEF54E40E941F02BB
:103C9000DC01CB018F839887A987BA876F817885EC
:103CA00089859A8520E030E040E85FE30E94550472
:103CB00088232CF481E090E09E838D833FC06F8148
:103CC000788589859A8520E03FEF4FE757E40E9489
:103CD000F50318164CF56B857C858D859E8520E057
:103CE00030E040E251E40E941F02DC01CB01BC0144
:103CF000CD010E944900DC01CB019E838D830FC062
:103D000088EC90E09C838B838B819C810197F1F7F9
:103D10009C838B838D819E8101979E838D838D8172
:103D20009E81009769F714C06F81788589859A858F
:103D30000E944900DC01CB019E838D838D819E8191
:103D40009A83898389819A810197F1F79A8389837C
:103D5000EF85F88980818295869586958370282FD6
:103D6000EF85F8898181982F929596959695937015
:103D700082818170880F880F892B982F822F692F5D
:103D800040E00E94190A61960FB6F894DEBF0FBE9C
:103D9000CDBFCF91DF910895DF93CF93CDB7DEB73D
:103DA00061970FB6F894DEBF0FBECDBF9D878C879D
:103DB0004E875F87688B798B8DB79EB70A970FB652
:103DC000F8949EBF0FBE8DBFEDB7FEB73196CE0102
:103DD0000196918380838BE090E09383828380E6D9
:103DE00090E0958384838E859F85A889B989868391
:103DF0009783A087B1870E94A62A8DB79EB70A969F
:103E00000FB6F8949EBF0FBE8DBF8C859D859E0119
:103E10002F5F3F4FB9010E949D1961960FB6F8942C
:103E2000DEBF0FBECDBFCF91DF9108950F93DF931B
:103E3000CF93CDB7DEB766970FB6F894DEBF0FBE4F
:103E4000CDBF988B8F87498B5A8B6B8B7C8B2D8B3F
:103E50000E8B9D898E89890F8068282F8F85988980
:103E6000622F0E94291980E090E0ACE0B2E48B87D9
:103E70009C87AD87BE876B857C858D859E8520E080
:103E800030E04AEF54E40E941F02DC01CB018F8333
:103E90009887A987BA876F81788589859A8520E078
:103EA00030E040E85FE30E94550488232CF481E071
:103EB00090E09E838D833FC06F81788589859A8548
:103EC00020E03FEF4FE757E40E94F50318164CF54A
:103ED0006B857C858D859E8520E030E040E251E455
:103EE0000E941F02DC01CB01BC01CD010E944900F0
:103EF000DC01CB019E838D830FC088EC90E09C8316
:103F00008B838B819C810197F1F79C838B838D81BF
:103F10009E8101979E838D838D819E81009769F795
:103F200014C06F81788589859A850E944900DC01DB
:103F3000CB019E838D838D819E819A838983898124
:103F40009A810197F1F79A8389838F8598892989C6
:103F50003A894B895C89BA01A9010E94CC1E6696F8
:103F60000FB6F894DEBF0FBECDBFCF91DF910F919A
:103F700008950F931F93DF93CF93CDB7DEB7689764
:103F80000FB6F894DEBF0FBECDBF9C8B8B8B4D8BD5
:103F90005E8B6F8B788F1F828BE0FE013896DF017E
:103FA000982F1D929A95E9F76D897E898F89988D52
:103FB0000E94E304DC01CB019E838D838D819E8171
:103FC000AA2797FDA095BA2FBC01CD010E948504B8
:103FD0009B01AC016D897E898F89988D0E94C101FA
:103FE000DC01CB0189839A83AB83BC83ADB7BEB7B9
:103FF00018970FB6F894BEBF0FBEADBFEDB7FEB7B2
:104000003196CE0108969183808386E090E0938379
:10401000828384E690E0958384838D819E8197835B
:1040200086830E94A62A8DB79EB708960FB6F8948D
:104030009EBF0FBE8DBF03C08F818F5F8F838F8127
:10404000282F30E0CE010896FC01E20FF31F80819B
:10405000882391F78F81282F30E0CE010896FC014C
:10406000E20FF31F8EE280838F818F5F8F838F81BA
:10407000082F10E069817A818B819C8120E030E0FB
:1040800040E251E40E941F02DC01CB01BC01CD01E2
:104090000E944900DC01CB012AE030E040E050E022
:1040A000BC01CD010E944E28DC01CB01282F205DF0
:1040B000CE010896FC01E00FF11F20838F818F5FF6
:1040C0008F838F81082F10E069817A818B819C8199
:1040D00020E030E048EC52E40E941F02DC01CB01FA
:1040E000BC01CD010E944900DC01CB012AE030E097
:1040F00040E050E0BC01CD010E944E28DC01CB0124
:10410000282F205DCE010896FC01E00FF11F2083CF
:104110008B899C899E01285F3F4FB9010E949D19A0
:1041200068960FB6F894DEBF0FBECDBFCF91DF917A
:104130001F910F9108950F93DF93CF93CDB7DEB703
:1041400066970FB6F894DEBF0FBECDBF988B8F87F2
:10415000498B5A8B6B8B7C8B2D8B0E8B9D898E891B
:10416000890F8068282F8F859889622F0E942919CE
:1041700080E090E0ACE0B2E48B879C87AD87BE879F
:104180006B857C858D859E8520E030E04AEF54E488
:104190000E941F02DC01CB018F839887A987BA8711
:1041A0006F81788589859A8520E030E040E85FE37B
:1041B0000E94550488232CF481E090E09E838D8337
:1041C0003FC06F81788589859A8520E03FEF4FE772
:1041D00057E40E94F50318164CF56B857C858D8598
:1041E0009E8520E030E040E251E40E941F02DC01A5
:1041F000CB01BC01CD010E944900DC01CB019E83B3
:104200008D830FC088EC90E09C838B838B819C8195
:104210000197F1F79C838B838D819E8101979E830B
:104220008D838D819E81009769F714C06F81788599
:1042300089859A850E944900DC01CB019E838D838C
:104240008D819E819A83898389819A810197F1F773
:104250009A8389838F85988929893A894B895C89D2
:10426000BA01A9010E94B91F66960FB6F894DEBF85
:104270000FBECDBFCF91DF910F910895DF93CF9304
:104280000F92CDB7DEB7198210C08981882F90E0D8
:10429000FC01EF53FE4F908183E0692F40E021E065
:1042A0000E94470C89818F5F89838981843068F3FC
:1042B000198210C08981882F90E0FC01EB53FE4FDA
:1042C000908183E0692F41E021E00E94470C8981C1
:1042D0008F5F89838981843068F30F90CF91DF915C
:1042E0000895DF93CF93CDB7DEB769970FB6F894F3
:1042F000DEBF0FBECDBFCE0103969E8B8D8BECEC47
:10430000F1E0F88FEF8BF0E1F98FEF89F88D008005
:104310008F89988D0196988F8F8BED89FE89008209
:104320008D899E8901969E8B8D8B998D9150998F49
:10433000E98DEE2351F781E08B8B1A8219825EC0E2
:104340008981882F90E0FC01EB53FE4F908183E040
:10435000692F40E00E94190A1A823DC08A81882F85
:1043600090E0FC01EF53FE4F90819E012D5E3F4F88
:1043700083E0692FA9010E94C20A8B89882341F535
:104380000FC08A81882F90E0FC01EF53FE4F90818F
:104390009E012D5E3F4F83E0692FA9010E94C20A52
:1043A0008B89882371F38A81282F30E08981482FF7
:1043B00050E0220F331F220F331FCE010196820FD0
:1043C000931F840F951FFC01329680818C8B1CC03B
:1043D0008A818F5F8A838A81843008F4BFCF898184
:1043E000882F90E0FC01EB53FE4F908183E0692F12
:1043F00041E00E94190A89818F5F89838981843015
:1044000008F49ECF9FEF9C8B8C8969960FB6F89429
:10441000DEBF0FBECDBFCF91DF910895CF92DF9267
:10442000EF92FF920F931F93DF93CF93CDB7DEB739
:104430006C970FB6F894DEBF0FBECDBF85E08E8BB4
:1044400085E08D8B8E89882F90E061E070E00E947E
:10445000A7289C8B8B8B8D89882F90E064E070E07F
:104460000E94A7289A8B898B188A80E090E0A0E0B0
:10447000B0E08F8B988FA98FBA8F8FEF8F870E94B4
:104480004F240E945C240E9471218F878F850E9497
:10449000F724882309F474C08091FC018F5F809316
:1044A000FC018091FC01813120F089EC91E00E94B7
:1044B0000A1A9091FB018D89981791F48D898F5F6D
:1044C0008D8B8D89882F90E09C01220F331F220F46
:1044D000331F89899A89B9010E94C8299A8B898BCF
:1044E0008091FB01882F90E09C01220F331F220F47
:1044F000331F89899A896C01C20ED31E8091FB01FA
:10450000882F90E09C01220F331F220F331F8989CF
:104510009A89FC01E20FF31F80819181A281B3810E
:10452000BC01CD0120E030E040E251E40E941F02D6
:10453000DC01CB017C018D018F85882F90E0AA27BB
:1045400097FDA095BA2FBC01CD010E9485049B0167
:10455000AC01C801B7010E94F201DC01CB01F601F8
:1045600080839183A283B3838F85282F30E040E03E
:1045700050E089EC91E0BA01A9010E94CC1E83CFE2
:104580008F850E941C25882309F457C08091FC0167
:104590008F5F8093FC018091FC01803120F089ECD9
:1045A00091E00E940A1A9091FA018E89981769F495
:1045B0008E898F5F8E8B8E89282F30E08B899C8926
:1045C000B9010E94C8299C8B8B8B8F858A3239F068
:1045D0008F858F3221F0F091F801FC8F02C081E0CD
:1045E0008C8FEC8DE093F8018F858B3239F08F85BD
:1045F0008D3221F0F091F901FB8F02C081E08B8FA9
:10460000EB8DE093F90189EC91E06F850E944119EF
:104610004091FA01242F30E08B899C89FC01E20F44
:10462000F31F8F858083842F8F5F8093FA018091A1
:10463000FB018F5F8093FB0126CF8F850E9435257C
:10464000882309F4BFC04091FB015091FA01898988
:104650009A892B893C89FE017796B901252F8F0114
:104660000E944026888B8889882329F18091FC014B
:10467000813158F08091FC01282F2F5089EC91E076
:1046800060E4422F0E94591906C089EC91E060E471
:1046900040E00E94591989EC91E06F850E94411910
:1046A0002F89388D498D5A8D89EC91E0BA01A90185
:1046B0000E94B91FE8CE89EC91E00E943D1A89EC76
:1046C00091E027E630E0B9010E949D1980E090E07A
:1046D000AAEFB3E48B879C87AD87BE876B857C850B
:1046E0008D859E8520E030E04AEF54E40E941F0251
:1046F000DC01CB018F839887A987BA876F81788582
:1047000089859A8520E030E040E85FE30E94550407
:1047100088232CF481E090E09E838D833FC06F81DD
:10472000788589859A8520E03FEF4FE757E40E941E
:10473000F50318164CF56B857C858D859E8520E0EC
:1047400030E040E251E40E941F02DC01CB01BC01D9
:10475000CD010E944900DC01CB019E838D830FC0F7
:1047600088EC90E09C838B838B819C810197F1F78F
:104770009C838B838D819E8101979E838D838D8108
:104780009E81009769F714C06F81788589859A8525
:104790000E944900DC01CB019E838D838D819E8127
:1047A0009A83898389819A810197F1F79A83898312
:1047B00089899A892B893C89B9014D892E890E9462
:1047C000F22361CE8F850E944E25882309F45BCEAB
:1047D00089899A892B893C89B9014D892E890E9442
:1047E000F22351CEDF93CF93CDB7DEB727970FB625
:1047F000F894DEBF0FBECDBF9B838A837D836C831D
:104800004E832F83198289EC91E00E943D1A109209
:10481000F8018091F8018093F9011092FC018091D8
:10482000FC018093FA018091FA018093FB0118C08A
:104830008981882F90E09C01220F331F220F331FA4
:104840008A819B81FC01E20FF31F80E090E0A0E0F1
:10485000B0E080839183A283B38389818F5F898352
:1048600099818E81981720F319820CC08981282F95
:1048700030E08C819D81FC01E20FF31F1082898161
:104880008F5F898399818F81981780F327960FB660
:10489000F894DEBF0FBECDBFCF91DF910895DF93B7
:1048A000CF93CDB7DEB789EC91E00E9415190E9435
:1048B0003E21CF91DF910895DF93CF93CDB7DEB73F
:1048C0002E970FB6F894DEBF0FBECDBF89EC91E0F6
:1048D00028E730E0B90140E024E00E94D61989ECD5
:1048E00091E020E830E0B90140E422E00E94D619CE
:1048F00080E090E0AAE7B4E48B879C87AD87BE8711
:104900006B857C858D859E8520E030E04AEF54E400
:104910000E941F02DC01CB018F839887A987BA8789
:104920006F81788589859A8520E030E040E85FE3F3
:104930000E94550488232CF481E090E09E838D83AF
:104940003FC06F81788589859A8520E03FEF4FE7EA
:1049500057E40E94F50318164CF56B857C858D8510
:104960009E8520E030E040E251E40E941F02DC011D
:10497000CB01BC01CD010E944900DC01CB019E832B
:104980008D830FC088EC90E09C838B838B819C810E
:104990000197F1F79C838B838D819E8101979E8384
:1049A0008D838D819E81009769F714C06F81788512
:1049B00089859A850E944900DC01CB019E838D8305
:1049C0008D819E819A83898389819A810197F1F7EC
:1049D0009A83898389EC91E00E943D1A2E960FB646
:1049E000F894DEBF0FBECDBFCF91DF910895DF9366
:1049F000CF9300D0CDB7DEB7898389818F3FA9F0EF
:104A00008981833691F089818D3379F089818A3269
:104A100061F089818F3249F089818B3231F089814F
:104A20008D3219F081E08A8301C01A828A810F9049
:104A30000F90CF91DF910895DF93CF9300D0CDB742
:104A4000DEB7898389818F3F49F089818D3331F0C9
:104A50008981833619F081E08A8301C01A828A81B4
:104A60000F900F90CF91DF910895DF93CF9300D0F7
:104A7000CDB7DEB7898389818F3F49F089818D3336
:104A800031F48981833619F081E08A8301C01A826A
:104A90008A810F900F90CF91DF910895DF93CF938C
:104AA00000D0CDB7DEB7898389818F3F31F089810E
:104AB000833619F481E08A8301C01A828A810F90BB
:104AC0000F90CF91DF910895DF93CF93CDB7DEB7ED
:104AD00028970FB6F894DEBF0FBECDBF9E838D839F
:104AE00078876F83ED81FE8180819181A281B3817E
:104AF00089839A83AB83BC83EF81F8858081918120
:104B0000A281B381ED81FE8180839183A283B383EF
:104B1000EF81F88589819A81AB81BC818083918303
:104B2000A283B38328960FB6F894DEBF0FBECDBF25
:104B3000CF91DF910895DF93CF9300D000D00F92F3
:104B4000CDB7DEB79B838A837D836C83EA81FB814B
:104B500080818983EC81FD818081EA81FB81808372
:104B6000EC81FD81898180830F900F900F900F90D1
:104B70000F90CF91DF910895DF93CF9300D000D0B5
:104B800000D0CDB7DEB79B838A836C835E834D8371
:104B90008C81898321C08981882F90E09C01220F1C
:104BA000331F220F331F8A819B81AC01420F531F99
:104BB0008981882F90E001969C01220F331F220FDC
:104BC000331F8A819B81280F391FCA01B9010E94B6
:104BD000642589818F5F8983ED81FE819081898140
:104BE0008917C8F2ED81FE8180818150ED81FE81BF
:104BF000808326960FB6F894DEBF0FBECDBFCF914F
:104C0000DF910895DF93CF9300D000D000D0CDB7CF
:104C1000DEB79B838A836C835E834D838C8189831B
:104C200019C08981282F30E08A819B81AC01420F15
:104C3000531F8981882F90E09C012F5F3F4F8A810D
:104C40009B81280F391FCA01B9010E949B258981C8
:104C50008F5F8983ED81FE8190818981891708F3B7
:104C6000ED81FE8180818150ED81FE8180832696D9
:104C70000FB6F894DEBF0FBECDBFCF91DF91089580
:104C8000CF92DF92EF92FF920F931F93DF93CF9318
:104C9000CDB7DEB72C970FB6F894DEBF0FBECDBFF1
:104CA0009D838C837F836E83488729871B870A8730
:104CB0001B821A821982EA85FB8580E090E0A0E0E1
:104CC000B0E080839183A283B383EAC08981282FD7
:104CD00030E08E819F81FC01E20FF31F80818A32D8
:104CE00009F051C08A81882F90E09C01220F331F68
:104CF000220F331F8C819D816C01C20ED31E8A81CD
:104D0000882F90E09C01220F331F220F331F8C81CC
:104D10009D81FC01E20FF31FE080F180028113818D
:104D20008A81882F90E001969C01220F331F220F69
:104D3000331F8C819D81FC01E20FF31F20813181A3
:104D400042815381C801B7010E941F02DC01CB01DF
:104D5000F60180839183A283B3838A81482F4F5FBA
:104D60008C819D819E01285F3F4F642FA9010E9485
:104D7000BC258E819F819E01275F3F4F6981A901DC
:104D80000E9402268DC08981282F30E08E819F816C
:104D9000FC01E20FF31F80818F3209F07BC08A8112
:104DA000882F90E001969C01220F331F220F331FA2
:104DB0008C819D81FC01E20FF31F80819181A28192
:104DC000B381BC01CD0120E030E040E050E00E9422
:104DD000C503882371F4EA85FB8580E090E0A0E0BC
:104DE000B0E080839183A283B3831B82FB81FC8725
:104DF00045C18A81882F90E09C01220F331F220F2A
:104E0000331F8C819D816C01C20ED31E8A81882F35
:104E100090E09C01220F331F220F331F8C819D8154
:104E2000FC01E20FF31FE080F180028113818A818F
:104E3000882F90E001969C01220F331F220F331F11
:104E40008C819D81FC01E20FF31F20813181428121
:104E50005381C801B7010E941903DC01CB01F6019F
:104E600080839183A283B3838A81482F4F5F8C8193
:104E70009D819E01285F3F4F642FA9010E94BC25A0
:104E80008E819F819E01275F3F4F6981A9010E940A
:104E9000022606C08A818F5F8A8389818F5F89831A
:104EA00098858A81891728F48091F801882309F070
:104EB0000DCF8091F9018823E1F481E08B838A8111
:104EC000882F90E09C01220F331F220F331F8C810B
:104ED0009D81FC01E20FF31F80819181A281B3814A
:104EE000EA85FB8580839183A283B383FB81FC8762
:104EF000C5C01A821982A4C08981282F30E08E8112
:104F00009F81FC01E20FF31F80818B3209F045C0C5
:104F10008A81882F90E001969C01220F331F220F77
:104F2000331F8C819D816C01C20ED31E8A81882F14
:104F300090E001969C01220F331F220F331F8C81BA
:104F40009D81FC01E20FF31FE080F180028113815B
:104F50008A81882F90E09C01220F331F220F331F7C
:104F60008C819D81FC01E20FF31F20813181428100
:104F70005381C801B7010E94F201DC01CB01F601A7
:104F800080839183A283B3838A818F5F8A8389819F
:104F90008F5F898381E08B8353C08981282F30E024
:104FA0008E819F81FC01E20FF31F80818D3209F019
:104FB00045C08A81882F90E001969C01220F331F03
:104FC000220F331F8C819D816C01C20ED31E8A81FA
:104FD000882F90E09C01220F331F220F331F8C81FA
:104FE0009D81FC01E20FF31FE080F18002811381BB
:104FF0008A81882F90E001969C01220F331F220F97
:10500000331F8C819D81FC01E20FF31F20813181D0
:1050100042815381C801B7010E94C101DC01CB016B
:10502000F60180839183A283B3838A818F5F8A8311
:1050300089818F5F898381E08B8302C01B8205C0D9
:1050400098858A81891708F457CF8A81882F90E044
:105050009C01220F331F220F331F8C819D81FC0185
:10506000E20FF31F80819181A281B381EA85FB85E4
:1050700080839183A283B383FB81FC878C852C96EC
:105080000FB6F894DEBF0FBECDBFCF91DF911F9159
:105090000F91FF90EF90DF90CF900895A1E21A2E2C
:1050A000AA1BBB1BFD010DC0AA1FBB1FEE1FFF1FCC
:1050B000A217B307E407F50720F0A21BB30BE40B1C
:1050C000F50B661F771F881F991F1A9469F7609563
:1050D0007095809590959B01AC01BD01CF0108951D
:1050E0002F923F924F925F926F927F928F929F92F8
:1050F000AF92BF92CF92DF92EF92FF920F931F93E6
:10510000CF93DF93CDB7DEB7CA1BDB0B0FB6F89496
:10511000DEBF0FBECDBF09942A88398848885F84D6
:105120006E847D848C849B84AA84B984C884DF8047
:10513000EE80FD800C811B81AA81B981CE0FD11D2B
:105140000FB6F894DEBF0FBECDBFED0108950F93EB
:105150001F93CF93DF93689F8001699F100D789F05
:10516000100D1124C8010E94C328EC01009729F0FA
:1051700060E070E0A8010E949F2ACE01DF91CF91EC
:105180001F910F910895CF93DF93BC018230910559
:1051900010F462E070E0A091FF01B0910002ED0117
:1051A000E0E0F0E040E050E021C08881998186177E
:1051B000970769F48A819B81309719F093838283E2
:1051C00004C0909300028093FF01FE0134C0681771
:1051D000790738F44115510519F08417950708F43B
:1051E000AC01FE018A819B819C01E9012097E9F6CF
:1051F00041155105A9F1CA01861B970B049708F4C4
:10520000BA01E0E0F0E02AC08D919C9111978417DB
:105210009507F9F46417750781F412968D919C91A6
:105220001397309719F09383828304C09093000200
:105230008093FF01FD0132964FC0CA01861B970B78
:10524000FD01E80FF91F6193719302978D939C9371
:1052500043C0FD01828193819C01D9011097A1F681
:105260008091FD019091FE01892B41F4809198017C
:10527000909199019093FE018093FD0140919A01D4
:1052800050919B014115510541F44DB75EB7809196
:10529000960190919701481B590B2091FD01309187
:1052A000FE0124173507B0F4CA01821B930B861741
:1052B000970780F0AB014E5F5F4F8417950750F062
:1052C000420F531F5093FE014093FD01F90161937A
:1052D000719302C0E0E0F0E0CF01DF91CF9108953B
:1052E000CF93DF93009709F450C0EC0122971B8203
:1052F0001A82A091FF01B0910002109709F140E0DD
:1053000050E0AC17BD0708F1BB83AA83FE012191D1
:105310003191E20FF31FAE17BF0779F48D919C9185
:105320001197280F391F2E5F3F4F3983288312961C
:105330008D919C9113979B838A834115510571F43C
:10534000D0930002C093FF0120C012968D919C91D2
:105350001397AD01009711F0DC01D3CFFA01D3838D
:10536000C28321913191E20FF31FCE17DF0769F459
:1053700088819981280F391F2E5F3F4FFA013183B1
:1053800020838A819B8193838283DF91CF910895CB
:10539000A0E0B0E0EEECF9E20C9476288C010097E6
:1053A00029F4CB010E94C3288C01BAC09EEFE92EDC
:1053B0009FEFF92EE00EF11E5801A60EB71EAE1497
:1053C000BF0408F4ABC08EEF882E8FEF982E8A0CA6
:1053D0009B1CE7014881598146175707B8F04530B3
:1053E000510508F49DC0CA0104978617970708F471
:1053F00097C042505040461B570BF40151834083E5
:1054000079836883C5010E9470298AC06B01C41A20
:10541000D50AE091FF01F0910002A0E0B0E0C0E009
:10542000D0E042C0E815F905A1F5208131812C15A5
:105430003D0578F1C90102968C159D05A8F04E5FD7
:105440005F4F420F531FE701598348832281338105
:10545000109729F013963C932E93129761C03093C6
:1054600000022093FF015CC0225030402C193D09FE
:1054700031832083109729F01396FC93EE931297B3
:1054800004C0F0930002E093FF01F7017183608391
:1054900047C080819181C817D90708F4EC01DF016A
:1054A000828193819C01F901309709F0BBCF400FB5
:1054B000511F8091FD019091FE0184179507E9F439
:1054C000C617D707D0F420919A0130919B0121157E
:1054D000310541F42DB73EB7809196019091970127
:1054E000281B390BA216B306C8F4B092FE01A09295
:1054F000FD01E7017983688313C0CB010E94C328B3
:10550000EC01009759F0F70140815181B8010E94E8
:10551000962AC8010E9470298E0102C000E010E0A6
:10552000C801CDB7DEB7ECE00C949228FB01DC019A
:1055300002C001900D9241505040D8F70895DC010F
:1055400001C06D9341505040E0F70895AEE0B0E0E7
:10555000ECEAFAE20C947E280D891E898F89988DD9
:1055600097FF02C080E090E801979E838D831A83A5
:10557000098386E08C839E01255E3F4FCE01019614
:10558000698D7A8DA9010E94D72A4D815E8157FDD0
:105590000AC02F813885421753070CF49A01020F75
:1055A000131FF80110822E96E4E00C949A28ABE0C9
:1055B000B0E0EDEDFAE20C9470283C012B015A01A9
:1055C000FC0117821682838181FD03C06FEF7FEF9C
:1055D000C6C19AE0892E1E010894211C311CF301DA
:1055E0002381F20123FD859123FF81912F018823DF
:1055F00009F4B2C1853239F423FD859123FF8191ED
:105600002F01853229F490E0B3010E94CA2CE7CF24
:10561000982FFF24EE249924FFE1FF15D0F09B3250
:1056200069F09C3228F4903259F0933291F40EC014
:105630009D3249F0903369F441E024C052E0F52AEC
:1056400084E0F82A28C098E0F92A25C0E0E1FE2A83
:1056500022C0F7FC29C0892F80538A3070F4F6FEEF
:1056600005C0989C902C1124980E15C0E89CE02C45
:105670001124E80EF0E2FF2A0EC09E3229F4F6FC57
:105680006BC140E4F42A07C09C3619F450E8F52AAF
:1056900002C0983649F4F20123FD959123FF9191C0
:1056A0002F01992309F0B8CF892F8554833018F042
:1056B0008052833038F444E050E0A40EB51E5FE31E
:1056C00059830FC0933631F0933779F0933509F051
:1056D00056C020C0F5018081898342E050E0A40ECD
:1056E000B51E610101E010E012C0F501C080D1805B
:1056F000F6FC03C06FEF7FEF02C0692D70E042E05F
:1057000050E0A40EB51EC6010E94BF2C8C015FE7BD
:10571000F52214C0F501C080D180F6FC03C06FEF04
:105720007FEF02C0692D70E042E050E0A40EB51E8C
:10573000C6010E94B42C8C0150E8F52AF3FE07C084
:105740001AC080E290E0B3010E94CA2CEA948E2D28
:1057500090E008171907A8F30EC0F601F7FC859131
:10576000F7FE81916F0190E0B3010E94CA2CE11015
:10577000EA94015010400115110579F7EAC09436FA
:1057800011F0993669F5F7FE08C0F50120813181E5
:105790004281538184E090E00AC0F50180819181CB
:1057A0009C01442737FD4095542F82E090E0A80EDD
:1057B000B91E9FE6F92257FF09C0509540953095D4
:1057C00021953F4F4F4F5F4FE0E8FE2ACA01B901D4
:1057D000A1012AE030E00E94F62CD82ED21840C059
:1057E000953729F41F2D1F7E2AE030E01DC01F2DA4
:1057F000197F9F3661F0903720F4983509F0ACC0DE
:105800000FC0903739F0983709F0A6C004C028E0DF
:1058100030E00AC0106114FD146020E130E004C0E3
:1058200014FD166020E132E017FF08C0F501608129
:1058300071818281938144E050E008C0F50180814C
:105840009181BC0180E090E042E050E0A40EB51EE2
:10585000A1010E94F62CD82ED2188FE7F82EF12243
:10586000F6FE0BC05EEFF522D91438F4F4FE07C043
:10587000F2FC05C08FEEF82202C01D2D01C0192DCB
:10588000F4FE0DC0FE01ED0DF11D8081803319F491
:1058900099EEF92208C01F5FF2FE05C003C08F2DEC
:1058A000867809F01F5F0F2DF3FC14C0F0FE0FC0C7
:1058B0001E1510F09D2C0BC09D2C9E0C911A1E2DB8
:1058C00006C080E290E0B3010E94CA2C1F5F1E1543
:1058D000C0F304C01E1510F4E11A01C0EE2404FF49
:1058E0000FC080E390E0B3010E94CA2C02FF1DC0EC
:1058F00001FD03C088E790E00EC088E590E00BC092
:10590000802F867891F001FF02C08BE201C080E217
:10591000F7FC8DE290E0B3010E94CA2C06C080E340
:1059200090E0B3010E94CA2C9A94D914C0F3DA947F
:10593000F101ED0DF11D808190E0B3010E94CA2CB0
:10594000DD20A9F706C080E290E0B3010E94CA2CD6
:10595000EA94EE20C1F743CEF30166817781CB0153
:105960002B96E2E10C948C28FC010590615070406C
:105970000110D8F7809590958E0F9F1F0895FC0118
:105980006150704001900110D8F7809590958E0F6E
:105990009F1F08950F931F93CF93DF938C01EB010B
:1059A0008B8181FF1BC082FF0DC02E813F818C81C6
:1059B0009D812817390764F4E881F9810193F983FF
:1059C000E88306C0E885F985802F0995892B31F495
:1059D0008E819F8101969F838E8302C00FEF1FEF00
:1059E000C801DF91CF911F910F910895FA01AA2765
:1059F000283051F1203181F1E8946F936E7F6E5F12
:105A00007F4F8F4F9F4FAF4FB1E03ED0B4E03CD0BF
:105A1000670F781F891F9A1FA11D680F791F8A1FA2
:105A2000911DA11D6A0F711D811D911DA11D20D009
:105A300009F468943F912AE0269F11243019305DC3
:105A40003193DEF6CF010895462F4770405D4193B4
:105A5000B3E00FD0C9F7F6CF462F4F70405D4A3301
:105A600018F0495D31FD4052419302D0A9F7EACFC9
:105A7000B4E0A6959795879577956795BA95C9F7F8
:105A800000976105710508959B01AC010A2E0694EB
:105A90005795479537952795BA95C9F7620F731FA4
:0C5AA000841F951FA01D0895F894FFCFEF
:105AAC00256C7500256400496E7661696C6420452F
:105ABC0071756174696F6E0057656C636F6D65000D
:105ACC00746F2043616C63756C61746F72000000BD
